:020000040800F2
:1000000040090020450100084D0100084F0100088B
:1000100051010008530100085501000800000000CC
:100020000000000000000000000000005701000870
:1000300059010008000000005B0100085D01000894
:100040005F0100085F0100085F0100085F01000810
:100050005F0100085F0100085F0100085F01000800
:100060005F0100085F0100085F0100085F010008F0
:100070005F0100085F0100085F0100085F010008E0
:100080005F0100085F0100085F0100085F010008D0
:100090005F0100085F0100085F0100085F010008C0
:1000A0005F0100085F0100085F0100085F010008B0
:1000B0005F010008110A00085F0100085F010008E5
:1000C0005F0100085F0100085F0100085F01000890
:1000D0005F010008690C0008450D00085F01000879
:1000E0005F0100085F0100085F0100085F01000870
:1000F0005F0100085F0100085F0100085F01000860
:100100005F0100085F0100085F0100085F0100084F
:100110005F0100085F0100085F0100085F0100083F
:100120005F0100085F0100085F0100085F0100082F
:10013000DFF80CD000F0DAF800480047C9110008D9
:10014000400900200648804706480047FEE7FEE7D2
:10015000FEE7FEE7FEE7FEE7FEE7FEE7FEE7FEE777
:10016000C10900083101000830B50EE003460A4617
:1001700001E05B1C521C1C781578AC4201D1002CAC
:10018000F7D115F0FF0F04D0401C0278002AEDD102
:10019000002030BDF0B480EA0102D20F4300B3EB7F
:1001A000410F02D20346084619464B0042D0C30D08
:1001B000DDB2C1F3C7542C1B202C35DAC1F3160174
:1001C00041F4000502B16D42C4F1200605FA06F1C2
:1001D00025412844B3EBD05F23D0C2B1012CA0EB62
:1001E000C35009DCF0BC4FF0004202EAC35200F5F4
:1001F0000000DBB200F04AB8400000F1807000EB74
:10020000C350A0F1807040EAD170490009E049086C
:1002100041EAC071A0EBC35000F50000400800EBBC
:10022000C350F0BC00F029B85142012303EB410157
:10023000801AF6E7F0BC704781F00041AAE780F031
:100240000040A7E796230022114600F01FB830B502
:100250000B46014600202022012409E021FA02F584
:100260009D4205D303FA02F5491B04FA02F528441E
:10027000151EA2F10102F1DC30BD0029A8BF7047B4
:10028000401C490008BF20F00100704710B4B0FACC
:1002900080FC00FA0CF050EA010404BF10BC704767
:1002A00049B1CCF1200421FA04F411FA0CF118BF81
:1002B000012121430843A3EB0C01CB1D4FEA006150
:1002C0004FEA102048BF0020BCBF10BC704700EBB5
:1002D000C35010440029A4BF10BC7047401C490003
:1002E00008BF20F0010010BC70470000064C074D0D
:1002F00006E0E06840F0010394E8070098471034F6
:10030000AC42F6D3FFF718FFD8110008F811000827
:1003100010B500F0BFF900F043FB00F057FCBDE85A
:10032000104000F01FB8000001480069FFF78ABFC5
:100330002400002010B50021094800F030FE0848D4
:100340000021443000F02BFE05480021883000F0E9
:1003500026FE03480021BDE81040CC3000F01FBE4F
:10036000240000202DE9FF410121042000F086F93E
:10037000FF20ADF8000010208DF80300234D03246A
:100380008DF802406946284600F08AF8E002ADF890
:10039000000004208DF803008DF8024069462846CD
:1003A00000F07EF8002328211A46084600F014F9D0
:1003B000FFF7C0FF0121022000F054F941F61F4071
:1003C0000126ADF800000025114FADF80460ADF82E
:1003D0000650ADF802506946384600F0A9FB0122EC
:1003E0004121384600F09BFB1D208DF80C008DF854
:1003F0000D508DF80E408DF80F6003A800F0ADF899
:100400000121384600F075FBBDE8FF81000801407E
:100410000004004010B50B4C0B48217800F086FD1D
:1004200009482178443000F081FD07482178883060
:1004300000F07CFD21780448BDE81040CC3000F08D
:1004400075BD0000000000202400002008480021A5
:10045000022241810272A0F84E1080F84C20A0F8D0
:10046000921080F89020A0F8D61080F8D420704721
:100470002400002004490A6822F010020A600A6879
:1004800002430A607047000000200240034A1168DE
:1004900001F0380101431160704700000020024064
:1004A0002DE9F041CA780025D30602F00F0201D5EC
:1004B0008B781A430B884FF00F084FF0010C13F0A4
:1004C000FF0F1CD0D0F800400E880CFA05F31E4038
:1004D0009E4210D1AF0008FA07F624EA060602FA97
:1004E00007F43443CE78282E02D0482E02D002E002
:1004F000436100E003616D1C082DE5D304600B88A7
:10050000FF2B1DD94468002505F108060CFA06F3F7
:100510000E881E409E420FD1AF0008FA07F624EA6B
:10052000060602FA07F43443CE78282E00D1436140
:10053000CE78482E00D103616D1C082DE4D34460B1
:10054000BDE8F0810246002092680A4200D00120F6
:1005500070474161704701617047F0B50F22C5785F
:1005600003784FF0E0210124E5B1D1F80C5D467825
:1005700005F4E065C5F5E0652D0AC5F10407EA401C
:100580008578BE40154035430B442A0183F800248A
:100590000078420900F01F00844001EB8200C0F89F
:1005A0000041F0BD03F01F008440580901EB8000BA
:1005B000C0F88041F0BD0000064B054AC0E90023A9
:1005C000826000224261C2618261C0E90312704709
:1005D000CDCC4C3E8FC2753C2DE9FC411646002225
:1005E000CDE900201D4C0F461D4602230122214665
:1005F0001B4800F0BDFC0022CDE900271848082365
:1006000004222146443000F0B3FC0022CDE900264C
:100610001348202310222146883000F0A9FC002234
:10062000CDE900250E48802340222146CC3000F041
:100630009FFC0B4C6089FFF705FE014604F120008A
:10064000FFF7BAFFB4F84E00FFF7FCFD014604F1D6
:100650006400BDE8FC41FFF7AFBF000000080140A7
:1006600024000020044A0029D16901D0014300E0A0
:100670008143D1617047000000100240044A002904
:10068000916901D0014300E081439161704700000E
:100690000010024010B500F02FF84FF480342046CF
:1006A00000F0C0F800F006F9012823D1002000F086
:1006B000AFF8002000F0DAF8A01100F0CDF8022029
:1006C000FFF7E4FE1020FFF7D5FE4FF4E0112046BF
:1006D00000F0DCF8012000F0D3F8392000F078F8C1
:1006E0000028FAD0022000F0DBF800BF00F088F804
:1006F0000828FBD110BD00000C48016841F0010141
:10070000016041680A4A114041600168094A11408C
:100710000160016821F48021016042684FF41F01EB
:1007200022F4FE0242608160704700000010024027
:100730000000FFF8FFFFF6FE214910B54B68214A83
:1007400013F00C0303D0042B01D0082B26D0026039
:100750004A681D4B02F0F00212099C5C0268E240FC
:1007600042604C6804F4E064240A1C5D22FA04F43C
:1007700084604C6804F460544FEAD4241B5D22FA70
:1007800003F2C2604968104B01F440414FEA9131D5
:100790001B1F595CB2FBF1F1016110BD4A684B6847
:1007A000022402F4701204EB924213F4803F02D050
:1007B0004B689B0301D5054B00E0024B5A43C6E74B
:1007C0000010024000127A000F00002000093D00D6
:1007D0000246002053090949012B0BD0022B0BD0F4
:1007E000D1F8241002F01F02012393400B4200D0E5
:1007F000012070470968F5E7096AF3E70010024035
:100800000248406800F00C007047000000100240F1
:10081000034A516821F0F001014351607047000024
:10082000001002400B490A6822F480320A600A680C
:10083000B0F5803F22F480220A6007D0B0F5802F07
:1008400003D1086840F4A02008607047086840F4AD
:100850008030F9E700100240034A516821F4E0615A
:1008600001435160704700000010024003494A688C
:1008700022F4605242EAC000486070470010024013
:10088000014908667047000000004242034A53686D
:10089000084323F47C131843506070470010024053
:1008A000034A516821F00301014351607047000081
:1008B0000010024030B500244FF4A0653120FFF74E
:1008C00087FF641CAC4201D00028F7D03120FFF72D
:1008D0007FFF002800D0012030BD000070B5064623
:1008E000094C0A4DFFF720FD01463046FFF7A7FCF3
:1008F000A04201D2A84203DD012000F045FCF1E74F
:10090000BDE87040FFF7A2BDACC527B7ACC527371F
:1009100021480021026842F4803202604FF4A06353
:100920000268491C12F4003F01D19942F8D10168D4
:10093000890330D519490A6842F010020A600A6832
:1009400022F003020A600A6842F002020A6041686B
:10095000416041684160416841F4806141604168A3
:1009600021F47C114160416841F4E8114160016863
:1009700041F08071016001688901FCD5416821F076
:1009800003014160416841F0020141604168C1F3E7
:1009900081010229FAD17047001002400020024074
:1009A0004FF0E0200269092122F0040202610348AD
:1009B000017042F22831418070470000040000209D
:1009C0000F4810B5016841F00101016041680D4A0E
:1009D0001140416001680C4A11400160016821F436
:1009E00080210160416821F4FE0141604FF41F0144
:1009F0008160FFF78DFF05494FF00060086010BD72
:100A0000001002400000FFF8FFFFF6FE08ED00E0D6
:100A100070B5234C0121204600F075F800283DD028
:100A20000121204600F062F81E4C2078401C207006
:100A30006088401C60801C4800F066FA1A48443008
:100A4000054600F061FA21780020642900D9207061
:100A50006188B1F5FA6F1DD960800521124800F058
:100A60004BFA0324104B142803D9143890FBF4F0EC
:100A700098810521284600F03FFA142804D914383B
:100A800090FBF4F0A3F85000B3F85020998907A028
:100A900000F09CFABDE87040FFF7BCBC70BD0000E0
:100AA0000004004000000020240000206265666F02
:100AB00072652070696420202020206C6566745F58
:100AC0007069645F7370656564203A202564202036
:100AD0002072696768745F7069645F7370656564CC
:100AE000203A202564200D0A00000000C94301823D
:100AF00070470029018802D041F0010101E021F096
:100B000001010180704702460020138A92890B423E
:100B100002EA010202D0002A00D001207047002A18
:100B2000828901D00A4300E08A4382817047000035
:100B300030B502881B4B1C4C98420DD0A0420BD004
:100B4000B0F1804F08D0194DA84205D0184DA842E9
:100B500002D0184DA84203D122F070054A882A43DA
:100B6000154DA84206D0154DA84203D022F4407579
:100B7000CA882A4302808A88984282850A88028528
:100B80000AD0A04208D00E4A904205D00D4A9042A9
:100B900002D00D4A904201D1097A01860121818259
:100BA00030BD0000002C0140003401400004004032
:100BB00000080040000C00400010004000140040FD
:100BC00000400140004401400048014010B586B09B
:100BD000012144F20400FFF751FD4FF40070ADF81D
:100BE000100018208DF8130003201D4C8DF8120002
:100BF00004A92046FFF754FC2015ADF8100004208E
:100C00008DF8130004A92046FFF74AFC4FF4E130A9
:100C100000900020ADF80400ADF80600ADF8080023
:100C2000ADF80C000C200F4CADF80A0069462046C8
:100C300000F000F9012240F22551204600F0E2F8D0
:100C4000012240F22441204600F0DCF80121204638
:100C500000F0AFF84021204600F0A2F806B010BD29
:100C6000000801400038014070B5294D40F225517F
:100C7000284600F0A8F8274CC0B1284600F034F907
:100C8000B4F80014C0B2C1F30E0140F2FF32914239
:100C90000CD2B4F80014B4F80034C1F30E01621899
:100CA000491C61F30E03A4F80034107040F2244193
:100CB000284600F088F8012828D1B4F8000440F450
:100CC0000040A4F80004284600F00EF912A11148D3
:100CD000FFF74AFA28B112490120887011A000F0EC
:100CE00075F912A10B48FFF73FFA28B111A000F0E7
:100CF0006DF913491148086004F5806420886FF38A
:100D00000E002080208820F40040208070BD00006C
:100D10000038014034010020535441525400000077
:100D200008000020737461727400000053544F5027
:100D30000000000073746F70000000000400FA05EA
:100D40000CED00E070B5134C40F2255529462046C5
:100D500000F039F800281BD02021204600F020F8B0
:100D60002946204600F01FF8204600F0BDF8C2B228
:100D70000948017809B1012901D15A2A08D1074B44
:100D80005A54491CC9B20170092901D1012141708D
:100D900070BD00000044004008000020360500201F
:100DA000C943018070470A0A01219140C94301806B
:100DB00070470029818902D041F4005101E021F4FB
:100DC00000518181704770B501F01F060122002596
:100DD000C1F3421302FA06F4012B0FD0022B0FD0FD
:100DE000838A4FEA11210088234202FA01F200EAC5
:100DF000020001D000B10125284670BD8389F0E7CB
:100E0000038AEEE710B5C1F3421301F01F0401217C
:100E1000A140012B07D0022B07D01430002A026812
:100E200005D00A4304E00C30F8E71030F6E78A43B7
:100E3000026010BD30B50446008A85B00D464CF600
:100E4000FF710840E98801432182A1894EF6F31021
:100E50000140A8882A8910436A890A431043A08167
:100E6000A08A4FF6FF410840A9890143A182684644
:100E7000FFF762FC1B48844201D1039800E002980E
:100E8000A1890904002900EBC00101EB00102968C9
:100E900002DA4FEA410101E04FEA8101B0FBF1F0D3
:100EA0006422B0FBF2F14FEA01114FEA11136FF027
:100EB00018056B43A58900EB83004FF032032D0426
:100EC00006D503EBC000B0FBF2F000F0070005E030
:100ED00003EB0010B0FBF2F000F00F00084320819C
:100EE00005B030BD003801408088C0F3080070476D
:100EF000C1F3080181807047C2694A4391B2818180
:100F00000022C2610846704710B504464FF40061E4
:100F10000548FFF717FB6076217E814203D0E16927
:100F2000491CE161207610BD0008014010B504465F
:100F3000007A2268022809D063898B420FD260B1FF
:100F4000E1881046BDE81040FFF703BBA1881046BA
:100F5000FFF7FFFAE1882068F4E7A188F1E728B1FC
:100F6000E188BDE810401046FFF7F5BAA188F8E720
:100F700030B5DDE9034501608280C380047245819C
:100F800085810021417601761422C161827321227C
:100F9000C27301614161C821A0F8401030BD10B595
:100FA000044601720800A188206807D0FFF7D1FA33
:100FB000E1882068BDE81040FFF7CDBAFFF7CBFA13
:100FC000E1882068BDE81040FFF7C3BA0FB4054BB5
:100FD00010B503A9044A029800F018F810BC5DF897
:100FE00014FB0000A51100082000002002E008C842
:100FF000121F08C1002AFAD170477047002001E093
:1010000001C1121F002AFBD1704700002DE9FF4FDC
:1010100089B004469B46002597E0252832D1002759
:10102000641C4E4AB84601212378203B01FA03F0A4
:10103000104202D00743641CF6E720782E2819D10D
:1010400014F8010F47F004072A280ED06FF02F0282
:101050002078A0F1300109290CD808EB880102EBB7
:10106000410100EB0108641CF2E70A98641C50F887
:10107000048B0A902078F0B3642808D0692806D041
:1010800075281FD05A460B9990476D1C5CE00A9951
:101090004FF00A0901C90A91002804DAC0F10000E2
:1010A0004FF02D0102E0390504D52B218DF82010D9
:1010B000012104E0F90701D02021F7E700218A4649
:1010C00008AE0CE00A994FF00A0901C90A91F5E748
:1010D0004946FFF7BCF801F1300106F8011D002870
:1010E000F6D1ADEB060000F12009780701D44FF0EE
:1010F0000108002000E02CE041464A46C84500DDDA
:10110000881A8046002706E008A85A46C05D0B9959
:1011100090476D1C7F1C5745F6DB04E030205A4693
:101120000B9990476D1CB8F10001A8F10108F5DC9E
:1011300005E016F8010B5A460B9990476D1CB9F162
:101140000001A9F10109F4DC641C207800287FF477
:1011500064AF0DB02846BDE8F08F000009280100FB
:1011600008494A884FF0E0215043486100228A61D3
:10117000012008610869C30701D0C003FAD50A61DC
:101180008A6170470400002030B504464FF47A7538
:1011900004E02846FFF7E4FF641EA4B2002CF8D157
:1011A00030BD000010B50446C1B20548FFF7A0FEEF
:1011B000044800BFB0F800180906FBD5204610BD52
:1011C0000038014000300140FFF7A2F80148FFF766
:1011D00085FBFEE79A99993FF8110008000000206E
:1011E00024000000EC0F00081C120008240000205E
:1011F0001C090000FC0F00080000000000000000B7
:1012000000000002040608000000000102030401BF
:0C121000020304060708090000000000AB
:0400000508000131BD
:00000001FF
