:020000040800F2
:10000000A0090020450100084D0100084F0100082B
:1000100051010008530100085501000800000000CC
:100020000000000000000000000000005701000870
:1000300059010008000000005B0100085D01000894
:100040005F0100085F0100085F0100085F01000810
:100050005F0100085F0100085F0100085F01000800
:100060005F0100085F0100085F0100085F010008F0
:100070005F0100085F0100085F0100085F010008E0
:100080005F0100085F0100085F0100085F010008D0
:100090005F0100085F0100085F0100085F010008C0
:1000A0005F0100085F0100085F0100085F010008B0
:1000B0005F010008DD1300085F0100085F01000810
:1000C0005F0100085F0100085F0100085F01000890
:1000D0005F010008ED190008D51A00085F0100084B
:1000E0005F0100085F0100085F0100085F01000870
:1000F0005F0100085F0100085F0100085F01000860
:100100005F0100085F0100085F0100085F0100084F
:100110005F0100085F0100085F0100085F0100083F
:100120005F0100085F0100085F0100085F0100082F
:10013000DFF80CD000F02EFC00480047FD27000837
:10014000A00900200648804706480047FEE7FEE772
:10015000FEE7FEE7FEE7FEE7FEE7FEE7FEE7FEE777
:100160008D1300083101000830B50EE003460A4641
:1001700001E05B1C521C1C781578AC4201D1002CAC
:10018000F7D115F0FF0F04D0401C0278002AEDD102
:10019000002030BDF0B480EA0102D20F4300B3EB7F
:1001A000410F02D20346084619464B0042D0C30D08
:1001B000DDB2C1F3C7542C1B202C35DAC1F3160174
:1001C00041F4000502B16D42C4F1200605FA06F1C2
:1001D00025412844B3EBD05F23D0C2B1012CA0EB62
:1001E000C35009DCF0BC4FF0004202EAC35200F5F4
:1001F0000000DBB200F0A7BA400000F1807000EB15
:10020000C350A0F1807040EAD170490009E049086C
:1002100041EAC071A0EBC35000F50000400800EBBC
:10022000C350F0BC00F086BA5142012303EB4101F8
:10023000801AF6E7F0BC704781F00041AAE780F031
:100240000040A7E780EA010210B502F0004240003A
:1002500026D04B0023D04FEA106101EB1361C0F3AD
:100260005600C3F3560340F4000043F40003A0FB20
:100270000330A1F17F014FEA00401C0401D000F1DE
:10028000010050EA134001D44000491EC3B20C06DD
:1002900004EBD010401C4008802B02D003E000206B
:1002A00010BD20F00100002900DA0020104310BD2D
:1002B00080EA010202F0004330B430F0004221F045
:1002C000004015D0A0B1C0F3C755C2F3C754C2F364
:1002D0001601C0F31600651B41F4000140F4000054
:1002E0007D35814201D36D1C00E04900002D02DA0A
:1002F00030BC002070474FF400020024814201D33B
:10030000091A144352084FEA4101F7D151B1814211
:1003100002D14FF0004105E002D24FF0010101E0AF
:100320006FF0010104EBC55030BC184400F002BA74
:10033000420005D0C0F3C7525242914201DC002076
:10034000704700EBC15070472DE9FE4F074681EA28
:100350000300C00F0E46019021F0004123F000443D
:10036000B81AA14105D23846314617461E460B46FB
:10037000024623F00040104304D13846314603B012
:10038000BDE8F08F350DC5F30A00C3F30A510290A2
:10039000401A0090402868DAC3F3130040F4801B31
:1003A0000198924620B10023D2EB030A63EB0B0BBA
:1003B00000985946C0F14002504600F08AF9804644
:1003C0000C4650465946009A00F0A2F9C0197141F6
:1003D000EF1785EA11533B4340D0019A52B3009A7C
:1003E000012A11DC0022801A4FF0004361EB055115
:1003F00003EA05538018CDE9002341F580114246F8
:10040000234600F0DAF9BAE72E050025401B61EB20
:100410000601401941F58012001852412818A6F52E
:10042000001343EB020140EAD470294318EB08089B
:10043000644113E064084FEA38084FF0000244EAD0
:10044000C0744FEA0553801A61EB0301801841F52F
:10045000801149084FEA300080185941424623462E
:1004600003B0BDE8F04F00F09BB9019801224000B5
:100470000023D0EB020263EBE07301984FEAE074D3
:10048000381A66EB0401EBE783F000435CE781F088
:10049000004159E72DE9FE4F81EA030421F00045B0
:1004A00004F0004423F000414FF0000A009450EAA9
:1004B000050302D052EA010304D10020014603B033
:1004C000BDE8F08FC1F30A53C5F30A541C44A0FBE6
:1004D00002B3C5F3130545F4801CC1F3130141F4C5
:1004E00080180CFB023300FB083EA4F2F334810AAF
:1004F000930A41EA8C5143EA88530194A1FB0347D4
:100500004FEA9C2505FB03734FEA982601FB06374B
:100510003D05260545EA1435BBEB06016EEB0503E8
:10052000850E920E45EA8C1542EA8812A5FB02065A
:10053000261E67EB00070C0D44EA0334A41947EBB1
:100540001350C1F313064FF0000319464FEA03336B
:1005500043EA165343EA0403019CE5FB0201A4F1BC
:100560000C040294009C4FEA0632CDE900A400F08E
:1005700024F9A4E7C10F80EAE0700844CA07962373
:10058000002100F0E0B896230022114600F0DBB80D
:100590000EB5C10F80EAE0700844CA07002140F29E
:1005A00033438DE80E000A460B4600F006F903B00F
:1005B00000BDC1F30A52C1F3130140F2FF3341F40D
:1005C00080119A4201DA0020704740F233439A4288
:1005D000A2F2334202DC524200F08AB890407047E7
:1005E00000F0004230F000400DD0C10D01F5607107
:1005F00042EA01510022C0F31600520742EAD0023B
:1006000040071143704700200146704701F0004247
:1006100030B421F0004150EA010306D00B0DA3F5E0
:100620006073C1F31301002B02DC30BC0020704763
:10063000440F44EAC104C100A01830BC00EBC35011
:1006400000F078B830B50B46014600202022012486
:1006500009E021FA02F59D4205D303FA02F5491B90
:1006600004FA02F52844151EA2F10102F1DC30BDA6
:100670002DE9F05F0546002092469B4688460646D7
:10068000814640241BE0284641464746224600F06A
:100690002FF852465B46801A994110D310461946EE
:1006A000224600F016F82D1A67EB01084F46224645
:1006B0000120002100F00DF817EB00094E41201E2B
:1006C000A4F10104DFDC484631462A464346BDE832
:1006D000F09F202A04DB203A00FA02F10020704744
:1006E0009140C2F1200320FA03F319439040704770
:1006F000202A04DB203A21FA02F00021704721FA77
:1007000002F3D040C2F120029140084319467047DD
:10071000202A06DBCB17203A41FA02F043EAE071C7
:10072000704741FA02F3D040C2F1200291400843E1
:10073000194670470029A8BF7047401C490008BFF0
:1007400020F00100704710B4B0FA80FC00FA0CF001
:1007500050EA010404BF10BC704749B1CCF1200439
:1007600021FA04F411FA0CF118BF012121430843C6
:10077000A3EB0C01CB1D0106000A002BBEBF00201D
:1007800010BC704700EBC35010440029A4BF10BC3C
:100790007047401C490008BF20F0010010BC7047A2
:1007A00010B5002B08DA401C41F1000192185B41A2
:1007B0001A4301D120F0010010BD2DE9F04D924601
:1007C0009B4611B1B1FA81F202E0B0FA80F2203218
:1007D0009046FFF77EFF06460F4640EA0A0041EAD0
:1007E0000B0152465B46084303D130463946BDE80B
:1007F000F08D194652EA010015D0C8F1400250466A
:10080000FFF776FF04460D46504659464246FFF72D
:1008100060FF084301D0012000E00020044345EAC6
:10082000E07526432F430A984FEAD625A0EB08002F
:100830000A304FEA46534FF0000245EA47554FEA67
:10084000D72402D500200146D1E7010550196141A6
:10085000DDE9084500196941BDE8F04DA0E72DE943
:10086000F04D81EA030404F0004B21F000471446E8
:100870004FF0000A23F0004150EA070220D054EA6A
:1008800001021DD0C1F30A550246C1F31300C7F39C
:100890000A56C7F3130340F4801143F48013A6EB08
:1008A0000508101BD64608F2FD3873EB010002D391
:1008B00008F1010801E092185B41B8F1000F03DA7A
:1008C00000200146BDE8F08D00204FF4801506465B
:1008D00007460EE0B2EB040C73EB010C04D3121BC1
:1008E000064363EB01032F436D084FEA3000921873
:1008F0005B4150EA050CEDD152EA030012D082EAC6
:10090000040083EA0105284303D100224FF000438D
:1009100008E0101B8B4102D20122002302E06FF09D
:10092000010253101AEB060047EB085110EB0A00C6
:1009300041EB0B01BDE8F04DFFF732BFC1F30A52A6
:10094000C1F3130140F2FF3341F480119A4202DAFD
:1009500000200146704740F233439A42A2F23342EC
:1009600002DC5242FFF7C4BEFFF7B3BE30B5002928
:1009700004DB4FF00044404264EB0101002B04DB38
:100980004FF00044524264EB0303994208BF904287
:1009900030BD0000064C074D06E0E06840F0010362
:1009A00094E8070098471034AC42F6D3FFF7C4FB35
:1009B000182800083828000810B500F019FB00F0CE
:1009C000D5FC00F0C5FF00F023F8BDE8104000F0B2
:1009D00029BA00000148006A70470000400000206A
:1009E00010B50A4C206901F057FA02460021204652
:1009F00001F0F0F9606E01F04FFA024604F1540084
:100A0000BDE81040002101F0E5B9000040000020E1
:100A1000FEB501210D2000F0D3FA4FF47070ADF84F
:100A2000000018208DF8030003248DF80240694669
:100A30001D4800F039F9E002ADF8000004208DF8FF
:100A400003001A4E8DF802406946304600F02CF93A
:100A500000F086F900258020CDE900054FF43464CC
:100A60004023324629460294114801F069F9701575
:100A7000CDE9000543100E4832460121029454305E
:100A800001F05EF90A4C04F13000216900F034FAFB
:100A900004F18400616E00F02FFAFFF7A1FFBDE8BA
:100AA000FE40044801F0F0B8000C0140000801408D
:100AB00040000020000000202DE9FC41324801F0F8
:100AC00029F931485430804601F024F92F49C822D1
:100AD0000868496800F00AFF002853D02B4801F04D
:100AE000D3F8294C207B022803D194F86000022817
:100AF00048D0274FE06A30B33946234801F0D0F898
:100B00000146606194F8520018B11F48303000F07F
:100B100007FA6069FFF764FD1E4A1F4BFFF7BAFC36
:100B200005460E46206AFFF75BFD2A463346FFF76F
:100B30000BFCFFF76BFD2062FFF752FD02460B46F0
:100B400016A001F0D3F9D4F8800060B139464046D0
:100B500001F0A6F80146A06694F8A60018B10A486C
:100B6000843000F0DDF9A06EFFF73AFD05460E4631
:100B70006069FFF735FDCDE9005602460B460CA033
:100B800001F0B4F9BDE8FC81400000200000002025
:100B90000000A0409A9999999999C93F6469737422
:100BA000616E636365203A2025302E34660D0A009D
:100BB0006C6566745F7370656564203A2025302E1D
:100BC0003266202072696768745F7370656564209F
:100BD0003A2025302E32660D0A00000070B504461A
:100BE0000D4601F029F904F13000216900F084F983
:100BF000294604F1540001F01FF904F18400616EEC
:100C0000BDE8704000F078B970B504460D4601F0BB
:100C10002BF904F13000216900F06EF9294604F146
:100C2000540001F021F904F18400616EBDE87040C8
:100C300000F062B910B5002202210F4801F0CAF895
:100C40000D4C2189606800F088F86189606800F0C7
:100C500084F80022022104F1540001F0BBF8B4F83A
:100C60005C10A06D00F079F8B4F85E10A06DBDE8DE
:100C7000104000F072B800004000002004490A68EB
:100C800022F010020A600A6802430A6070470000FE
:100C900000200240034A116801F03801014311604D
:100CA00070470000002002402DE9F041CB7800257C
:100CB00003F00F02DB0601D58B781A430B884FF047
:100CC0000F0813F0FF0F4FF0010C1CD0D0F80040BC
:100CD0000E880CFA05F31E409E4210D1AF0008FAB0
:100CE00007F624EA060602FA07F43443CE78282EE3
:100CF00002D0482E02D002E0436100E003616D1C87
:100D0000082DE5D304600B88FF2B1DD9446800250E
:100D100005F108060CFA06F30E881E409E420FD11C
:100D2000AF0008FA07F624EA060602FA07F434438D
:100D3000CE78282E00D14361CE78482E00D10361B1
:100D40006D1C082DE4D34460BDE8F081024600200C
:100D500092680A4200D0012070474161704700004C
:100D600070B588B00121042000F012F92C4E3046F5
:100D700000F086FB304600F04EFC41F61F40002498
:100D8000ADF81400ADF81040ADF81640ADF81240C3
:100D900004A9304600F05CFD0121304600F04EFB16
:100DA000684600F042FD6020ADF8000001204FF4DD
:100DB0006165ADF80200ADF80650ADF8084069462F
:100DC000304600F02DFC0821304600F069FC6946F1
:100DD000304600F06BFCADF806400821304600F0CC
:100DE000A3FC6946304600F0A7FCADF80650082188
:100DF000304600F0DDFC6946304600F0DFFCADF81F
:100E000006400821304600F009FD0121304600F07F
:100E100022FB0121304600F028FB08B070BD000025
:100E2000000800407FB50121022000F0B1F80A203F
:100E3000ADF8040041F61F40ADF800000024134D4A
:100E4000ADF80640ADF802406946284600F000FDC6
:100E500001224121284600F0D6FB1D208DF80C0010
:100E60008DF80D4003208DF80E0001208DF80F0045
:100E700003A800F00FF8064928460C704C708C70DF
:100E80008C80CC80012100F0E6FA7FBD0004004098
:100E90002000002070B50F21C478027801234FF0A4
:100EA000E026DCB1124C246804F4E064C4F5E0648C
:100EB000250AC5F10404E9404578A54084780C4032
:100EC0002C4321010B4C1155007800F01F018B4081
:100ED000400906EB8000C0F8003170BD02F01F0031
:100EE0008340500906EB8000C0F8803170BD0000DF
:100EF0000CED00E000E400E0064A0260064A4260B1
:100F0000064A826000224261C2618261C0E9031226
:100F1000704700000AD7A33C8FC2753CCDCC4C3E35
:100F20002DE9F047C76804463846FFF785F9606148
:100F3000A669054601213046FFF7FAF92946FFF771
:100F40007EF9E169FFF726F9A168FFF77BF9814691
:100F500029466068FFF776F9804631462846FFF754
:100F60006BF92168FFF76EF94146FFF713F949461F
:100F7000FFF710F901462069FFF70CF92061C4E979
:100F8000065601463846BDE8F047FFF703B90000B2
:100F9000044A0029D16901D0014300E08143D161B5
:100FA0007047000000100240044A0029116901D076
:100FB000014300E0814311617047000000100240CE
:100FC000044A0029916901D0014300E08143916105
:100FD0007047000000100240044A0029D16801D087
:100FE000014300E08143D1607047000000100240DF
:100FF00010B500F02FF84FF48034204600F0C2F80E
:1010000000F008F9012823D1002000F0B1F80020F9
:1010100000F0DCF8A01100F0CFF80220FFF73AFE54
:101020001020FFF72BFE4FF4E011204600F0DEF811
:10103000012000F0D5F8392000F07AF80028FAD025
:10104000022000F0DDF800BF00F08AF80828FBD18C
:1010500010BD00000C48016841F0010101604168C9
:101060000A4A114041600168094A11400160016863
:1010700021F480210160416821F4FE0141604FF4B8
:101080001F01816070470000001002400000FFF85F
:10109000FFFFF6FE224910B54A6812F00C03214A00
:1010A00003D0042B01D0082B26D002604A681E4BC7
:1010B00002F0F00212099C5C0268E24042604C6857
:1010C00004F4E064240A1C5D22FA04F484604C6891
:1010D00004F460544FEAD4241B5D22FA03F2C26088
:1010E0004968114B01F440414FEA91311B1F595C93
:1010F000B2FBF1F1016110BD4A684B6802F4701255
:101100004FF0020413F4803F04EB924202D04B688C
:101110009B0301D5054B00E0024B5A43C5E7000095
:101120000010024000127A002C00002000093D004F
:101130000246002053090949012B0BD0022B0BD08A
:10114000D1F8241002F01F02012393400B4200D07B
:10115000012070470968F5E7096AF3E700100240CB
:101160000248406800F00C00704700000010024088
:10117000034A516821F0F0010143516070470000BB
:10118000001002400B490A6822F480320A600A68A3
:1011900022F480220A60B0F5803F07D0B0F5802F9E
:1011A00003D1086840F4A02008607047086840F444
:1011B0008030F9E700100240034A516821F4E061F1
:1011C00001435160704700000010024003494A6823
:1011D00022F4605242EAC0004860704700100240AA
:1011E000014908667047000000004242034A536804
:1011F000084323F47C1318435060704700100240EA
:10120000034A516821F00301014351607047000017
:101210000010024030B500244FF4A0653120FFF7E4
:1012200087FF641CAC4201D00028F7D03120FFF7C3
:101230007FFF002800D0012030BD000070B5FFF70F
:10124000C9FB4FF081451B4CA8420BDAD4E90201DF
:10125000642200F04BFB00282BD017491748FFF7FA
:10126000D3FC1CE0FFF7B6FBA8421EDBFFF7B2FB86
:101270001349884219DAD4E90201642200F036FBEE
:10128000002816D06068FFF7ABF90E4A0E4BFFF747
:1012900001F9FFF7BBF901460848FFF79FFCBDE8DD
:1012A00070400448083000F0EFBCBDE87040FFF724
:1012B000C1BC70BD0C0000200AD7233D40000020B7
:1012C0000000A0409A9999999999A93F014800F086
:1012D000DBBC00001400002022480021026842F418
:1012E000803202604FF4A063026801F1010112F440
:1012F000003F01D19942F7D10168890330D51A49DD
:101300000A6842F010020A600A6822F003020A60CA
:101310000A6842F002020A60416841604168416027
:10132000416841F480614160416821F47C11416071
:10133000416841F4E8114160016841F08071016049
:1013400001688901FCD5416821F0030141604168D1
:1013500041F0020141604168C1F381010229FAD1E3
:101360007047000000100240002002404FF0E020D3
:10137000016921F00401016103480921017042F271
:101380002831418070470000080000200F4810B548
:10139000016841F00101016041680D4A114041605E
:1013A00001680C4A11400160016821F4802101604C
:1013B000416821F4FE0141604FF41F018160FFF795
:1013C0008BFF05494FF00060086010BD001002401F
:1013D0000000FFF8FFFFF6FE08ED00E010B5154C29
:1013E0000121204600F004F9002822D001212046E6
:1013F00000F02EF810488188491C89B28180B1F52F
:101400007A7F16D3002181808278521CD2B28270FA
:101410003C2A0ED381704278521CD2B242703C2AD0
:1014200007D341700278521CD2B20270182A00D33E
:10143000017010BD00040040200000200029018838
:1014400002D041F0800101E021F08001018070476D
:10145000C943018270470029018802D041F001018F
:1014600001E021F0010101807047002930F8441F9C
:1014700002D041F4004101E0C1F30E010180704748
:101480004B4910B5884202D10121C41486E0B0F165
:10149000804F09D0474988420DD101210220FFF732
:1014A00083FD0021022064E001210846FFF77CFD56
:1014B000002101205DE04049884206D1012104203D
:1014C000FFF772FD0021042053E03C49884206D119
:1014D00001210820FFF768FD0021082049E0384974
:1014E000884206D101211020FFF75EFD0021102067
:1014F0003FE03449884206D101212020FFF754FD06
:101500000021202035E03049884202D101214414D5
:1015100044E02E49884202D10121CC043EE02C490E
:10152000884202D101210C0538E02A49884202D1C3
:1015300001214C0532E02849884206D10121402092
:10154000FFF732FD0021402013E02449884206D1F4
:1015500001218020FFF728FD0021802009E020499B
:1015600088420AD1841501212046FFF71DFD002184
:101570002046BDE81040FFF717BD1A49884202D146
:1015800001210C040AE01849884202D101214C04CF
:1015900004E0164988420AD101218C042046FFF755
:1015A0001BFD2046BDE810400021FFF715BD10BD12
:1015B000002C01400004004000080040000C0040E6
:1015C000001000400014004000340140004C014075
:1015D000005001400054014000180040001C004031
:1015E000002000400040014000440140004801400C
:1015F000038A002280890B4200EA010001D000B179
:10160000012210467047002A828901D00A4300E077
:101610008A4382817047018921F007010181704767
:1016200030B5028C22F001020284028C8388048B84
:1016300022F0020224F073050C882C430D89154317
:101640004A882A43114DA8420BD0114DA84208D018
:10165000104DA84205D0104DA84202D00F4DA8420F
:101660000DD122F008054A8923F440732A4322F061
:1016700004058A882A438D891D43CB892B438380A7
:101680000483C9888186028430BD0000002C01409B
:101690000034014000400140004401400048014046
:1016A000028B22F008020A430283704730B5028C95
:1016B00022F010020284028C8388048B22F0200224
:1016C00024F4E6450C88240645EA14440D892D05CA
:1016D00042EA15454A88120545EA1242104DA842D1
:1016E00002D0104DA84215D122F080054A8923F47A
:1016F0004063120545EA124222F040058A8812052D
:1017000045EA12428D89AD0443EA1545CB899B0415
:1017100045EA134383800483C9880187028430BD6E
:10172000002C014000340140028B22F4006242EAA6
:10173000012101837047000030B5028C22F48072D1
:101740000284028C8388848B22F4007224F0730557
:101750000C882C430D892D0642EA15454A8812064D
:1017600045EA1242104DA84202D0104DA84215D1B0
:1017700022F400654A8923F44053120645EA1242D6
:1017800022F480658A88120645EA12428D892D0569
:1017900043EA1545CB891B0545EA134383808483BF
:1017A000C9888187028430BD002C0140003401408B
:1017B000828B22F008020A438283704730B5028C84
:1017C00022F480520284038C8288848B24F4E645C0
:1017D0000C88240645EA144423F400550B891B07A2
:1017E00045EA13434D882D0743EA1545094B9842B6
:1017F00002D0094B984205D122F480438A89920590
:1018000043EA124282808483C988A0F8401005848C
:1018100030BD0000002C014000340140828B22F4D6
:10182000006242EA012181837047002101804180EA
:101830008180C180018141818181C1817047818620
:1018400070470187704781877047A0F84010704744
:1018500030B502881B4B1C4C98420DD0A0420BD0D7
:10186000B0F1804F08D0194DA84205D0184DA842BC
:1018700002D0184DA84203D122F070054A882A43AD
:10188000154DA84206D0154DA84203D022F440754C
:10189000CA882A4302808A8882850A8802859842FB
:1018A0000AD0A04208D00E4A904205D00D4A90427C
:1018B00002D00D4A904201D1097A0186012181822C
:1018C00030BD0000002C0140003401400004004005
:1018D00000080040000C00400010004000140040D0
:1018E00000400140004401400048014010B5C3B22F
:1018F0004FF461646343C0F30724C4EB041403EBA7
:101900008403C0F30740184400EB4003C3EBC0104E
:1019100002EBC00089B242180C484FF461630178B1
:1019200059434378C3EB031301EB83018378808829
:10193000194401EB4103C3EBC11100EBC10082422A
:1019400001DC012010BD002010BD0000200000209F
:1019500010B586B0012144F20400FFF731FB4FF4CB
:101960000070ADF8100018208DF8130003201D4CF6
:101970008DF8120004A92046FFF796F92015ADF85E
:10198000100004208DF8130004A92046FFF78CF9FD
:101990004FF4E13000900020ADF80400ADF80600EF
:1019A000ADF80800ADF80C000C200F4CADF80A00A3
:1019B0006946204600F006F9012240F225512046F2
:1019C00000F0E8F8012240F22441204600F0E2F85D
:1019D0000121204600F0B5F84021204600F0A8F88B
:1019E00006B010BD000801400038014070B52B4D15
:1019F00040F22551284600F0AEF8294CE0B12846C7
:101A000000F03AF9A4F58061C0B2B1F8001440F2D8
:101A1000FF32C1F30E0191420ED2A4F58061B1F8FC
:101A20000014A4F58062C1F30E010A442388491C06
:101A300061F30E032380107040F22441284600F029
:101A40008AF8012828D11748B0F8000440F4004073
:101A50002080284600F010F913A11248FEF784FBFD
:101A600028B113490120887012A000F03FFA13A199
:101A70000C48FEF779FB28B112A000F037FA1449A0
:101A8000124808600748B0F800046FF30E00208089
:101A9000208820F40040208070BD00000038014004
:101AA0009005002090010020535441525400000042
:101AB0001C000020737461727400000053544F5076
:101AC0000000000073746F70000000000400FA054D
:101AD0000CED00E070B5134C40F225552946204628
:101AE00000F039F800281BD02021204600F020F813
:101AF0002946204600F01FF8204600F0BDF8C2B28B
:101B00000948017809B1012901D15A2A08D1074BA6
:101B10005A54491CC9B20170092901D101214170EF
:101B200070BD0000004400401C0000209205002011
:101B3000C943018070470A0A01219140C9430180CD
:101B400070470029818902D041F4005101E021F45D
:101B500000518181704770B501F01F0601220025F8
:101B6000C1F3421302FA06F4012B0FD0022B0FD05F
:101B7000838A4FEA11210088234202FA01F200EA27
:101B8000020001D000B10125284670BD8389F0E72D
:101B9000038AEEE710B5C1F3421301F01F040121DF
:101BA000A140012B07D0022B07D01430002A026875
:101BB00005D00A4304E00C30F8E71030F6E78A431A
:101BC000026010BD30B50446008A85B00D464CF663
:101BD000FF710840E98801432182A1894EF6F31084
:101BE0000140A8882A8910436A890A431043A081CA
:101BF000A08A4FF6FF410840A9890143A1826846A7
:101C0000FFF748FA1B48844201D1039800E002988C
:101C1000A1890904002900EBC00101EB001029682B
:101C200002DA4FEA410101E04FEA8101B0FBF1F035
:101C30006422B0FBF2F14FEA01114FEA11136FF089
:101C400018056B4300EB8300A3891D044FF032039A
:101C500006D503EBC000B0FBF2F000F0070005E092
:101C600003EB0010B0FBF2F000F00F0008432081FE
:101C700005B030BD003801408088C0F308007047CF
:101C8000C1F308018180704704490A7802704A78DC
:101C900042708A7882708988818070472000002095
:101CA0002DE9F0410D460446017E4FF0FF3000EB78
:101CB0004100FEF75FFC0746E06AFEF764FC8046E1
:101CC0002946FEF7BFFA3946FEF7F2FAFEF788FC1E
:101CD00005460E46E069FEF783FC0C4A0C4BFEF706
:101CE000D9FB2A463346FEF7D5FBFEF78FFC0546A7
:101CF00039464046FEF7DCFA616AFEF74BFA60624D
:101D00000020E0622846BDE8F08100006F1283C029
:101D1000CA21194010B504464FF400610748FFF787
:101D200015F884F8290094F82810814204D0E16A5B
:101D3000491CE16284F8280010BD00000008014041
:101D400070B50446DDE90406069D217062602381BA
:101D500060812673284600F01BF820612846FEF7B4
:101D600012FC6061002084F8290084F82800142106
:101D7000E06221760549C4E907106062C820A4F832
:101D80005000012084F8520070BD0000022B073D76
:101D900010B5B0F5076F01D2002010BDA0F50760A7
:101DA0004FF4B47190FBF1F0FEF7F2FB064C074BD9
:101DB0002246FEF76FFB2246054BFEF7C5FABDE84B
:101DC0001040FEF723BC00009A9999999999A93F70
:101DD0009999B93F70B504460D4616461046FFF76F
:101DE000D7FF20612078134C60B1012821D1D5B1F3
:101DF00000212046FFF727FD31462046BDE8704010
:101E0000FFF723BD4DB100212046FFF718FD3146F5
:101E10002046BDE87040FFF714BD31462046FFF76D
:101E20000EFD0021F4E731462046FFF70CFD0021AE
:101E3000E3E770BD0008004010B504460069FEF7F6
:101E4000FBF90849884202DA0846216100E0206176
:101E5000E06300F021F80246217B2046BDE81040F7
:101E6000FFF7B8BFCDCCCC3D10B504460069FEF7F6
:101E700091F90849884202DB0846216100E02061AF
:101E8000E06300F009F80246217B2046BDE81040DF
:101E9000FFF7A0BFCDCC4C3F0E4910B5884202DA07
:101EA0004FF4076010BDFEF79BFB0B4A0B4BFEF790
:101EB000EBFA00220A4BFEF7EDFA0022094BFEF77F
:101EC000E9FA0022084BFEF73FFAFEF772FB80B2F8
:101ED00010BD0000CDCCCC3D9A9999999999B93F04
:101EE000000034400080764000E0A0400FB4054B75
:101EF00010B503A9044A029800F0C4F810BC5DF8BC
:101F000014FB0000E12700083C00002002E008C8A4
:101F1000121F08C1002AFAD170477047002001E063
:101F200001C1121F002AFBD1704700002DE9FF5F9D
:101F3000DDE90210020DDDF838B001430FD10F9832
:101F400001244BA3012807D000980F9AC0E9003163
:101F5000C0E90242BDE8FF9F6FEA0B01F4E7A2F27D
:101F6000FF3244F61050424315140F9801280ED04A
:101F7000A5EB0B00401C4FF000043E4EDFF8F8903C
:101F8000B0F1000AA04605DACAF1000717E0CBF16C
:101F90000000F0E7074612E0F80707D02246334674
:101FA00040464946FEF776FA804689462246334641
:101FB00010461946FEF76EFA04460E467F10002FB3
:101FC000EAD1DDE90201BAF1000F42464B4602DADE
:101FD000FEF760FA01E0FEF742FC04460E460022DE
:101FE000264BFEF7C3FC03D84FF0FF30014607E055
:101FF0000022234B20463146FEF7A6F9FEF79EFC51
:10200000102409E0002C0ADB0A220023FEF730FB33
:10201000019B30321A55641E50EA0102F2D1641C51
:10202000019AC4F1110314440F9A012A09D0012224
:10203000084301D15B450FDD4FF0000205F10105BA
:102040000DE0084303D1A3EB0B056D1E09E0002052
:102050004FF0110B0F9088E701DA00226D1E002A65
:1020600083D000980F99C0E90231C0E9004571E7BB
:1020700030000000000024400000F03F0000F0436A
:102080000000E03F2DE9FF4F95B006469A4689468D
:10209000002521E2252801D01799A6E00024F9495E
:1020A0002746761C4FF0010803943278203A08FA4C
:1020B00002F0084202D00443761CF6E730782A2862
:1020C00011D06FF02F023078A0F13001092916D815
:1020D000039944F0020401EB810102EB4101084441
:1020E000761C0390EFE759F8041B0391002903DAEB
:1020F000484244F40054039044F00204761C3078C3
:102100002E2816D116F8010F44F004042A280DD009
:102110006FF02F013078A0F13002092A09D807EBBF
:10212000870201EB42028718761CF3E759F8047B1B
:10213000761C30786C280FD006DC4C2817D0682825
:102140000DD06A2814D104E0742810D07A280FD159
:102150000DE044F400140AE044F4801401E044F477
:1021600040147178814202D1761C04F58014761CEB
:1021700096F800C0BCF1660F10D01ADCBCF1580F05
:1021800070D00CDCBCF1000F6DD0BCF1450FF3D06A
:10219000BCF1460FF0D0BCF1470F24D1A4E1BCF153
:1021A000630F40D0BCF1640F74D0BCF1650F1AD13D
:1021B0009AE1BCF1700F6ED00CDCBCF1670FEDD072
:1021C000BCF1690F75D0BCF16E0F12D0BCF16F0F6E
:1021D00009D1B3E0BCF1730F2FD0BCF1750F76D0ED
:1021E000BCF1780F74D017996046524690476D1C29
:1021F00070E1C4F30250022809D003280DD0D9F8A9
:10220000001004280DD00D6009F1040962E1D9F82D
:102210000010EA17C1E90052F6E7D9F800100D8066
:10222000F2E70D70F0E759F8041B8DF8001000205C
:102230008DF80100EB46012003E059F804BB4FF094
:10224000FF3061074FF0000102D40FE008F10101F7
:102250008846B94211DA8045F8DB1BF808100029DE
:10226000F4D10AE060E03BE108F1010188468142D7
:10227000FADB1BF808100029F6D103985346A0EBAF
:10228000080721463846179A00F091FA284400EBD7
:10229000080506E00DE049E01BF8010B52461799CE
:1022A0009047B8F10108F7D2534621463846179AAD
:1022B0000DE10A21C4F302524FF0000B0091022AF3
:1022C00007D059F8040BC117032A0AD00BE024E009
:1022D00025E009F1070020F00702F2E8020191462B
:1022E00005E000B2C117042A01D140B2C11700298C
:1022F00006DA0A460021404261EB02012D2202E08B
:10230000220504D52B228DF80420012203E0E207E8
:1023100001D02022F7E7904654E00A2100E0102186
:102320004FF0000B00910DE0102008E010204FF05E
:10233000000B44F004040827009003E008204FF04D
:10234000000B0090C4F30252022A05D059F8040B86
:102350000021032A08D009E009F1070020F0070254
:10236000F2E80201914605E080B20021042A01D181
:10237000C0B200214FF00008220723D5BCF1700F36
:1023800028D0009B83F0100353EA0B0309D150EAD5
:10239000010206D030228DF804208DF805C00222FB
:1023A0009046009B83F0080353EA0B030AD150EADE
:1023B000010201D1620705D530228DF804204FF0CB
:1023C00001087F1EBCF1580F09D02FA20C920CAA55
:1023D000029211E040228DF804200122E0E72FA2B2
:1023E000F4E75B46009AFEF743F90C9B9B5C029A6C
:1023F000A2F101020292137050EA0102F1D1029897
:1024000004A9A1EB000000F1200B600702D524F421
:10241000803400E001275F4502DDA7EB0B0000E000
:10242000002000EB0B01009003984144A0EB010059
:102430000390E00306D453462146179A039800F010
:10244000B6F90544002706E001A85246C05D179979
:1024500090476D1C7F1C4745F6DBE0030CD55346C7
:102460002146179A039800F0A2F9054404E03020B1
:102470005246179990476D1C0099481E00900029FC
:10248000F5DC1EE0092801003031323334353637AF
:1024900038396162636465660000000030313233B0
:1024A0003435363738394142434445460000000050
:1024B0000298029952460078491C02911799904758
:1024C0006D1CBBF10001ABF1010BF1DC50E100F040
:1024D0005BF9054406F10106307800287FF4DAAD97
:1024E00019B02846BDE8F08F600700D4062709F12F
:1024F000070020F00701F1E80220894600F00043C0
:10250000190001D09DA109E0210501D59CA105E09C
:10251000E10701D09BA101E0AFF2840120F000436C
:102520001391BCF1650F11D009DCBCF1450F0DD042
:10253000BCF1460F20D0BCF1470F3ED13EE0BCF1CC
:10254000660F19D0BCF1670F7CD137E00021112F45
:1025500001DB112000E0781CCDE9000104A90CA8E2
:10256000FFF7E4FCDDE90D010C9A4FF0000B07F1D9
:102570000108109200914CE04FF000400097CDE927
:10258000018004A90CA8FFF7D1FCDDE90E20DDE9EC
:102590000C314FF0000B90461093009218B907F1E0
:1025A000010001EB0008B7EB080003D4C0F1FF3BCA
:1025B00007F10108A8EB0700019043E0012F00DAC2
:1025C00001270021112F01DD112000E03846CDE95F
:1025D000000104A90CA8FFF7A9FCDDE90D010C9A84
:1025E00000914FF0000BB846109221070CD40099CF
:1025F000414500DA8846B8F1010F05DD109AA8F1CF
:102600000101515C302908D0B84202DA10F1040F00
:1026100006DA0121CDE9011014E0A8F10101E9E792
:10262000002803DC8344A8EB000102E0411C414583
:1026300000DD8846A0EB0B0000F1010001904FF097
:1026400000400290200705D40198404502DB4FF07E
:10265000FF30019000208DF84B0002980DF14B07E0
:10266000B0F1004F26D002200C902B200D90029844
:1026700000280CDA404202902D200D9007E00A213C
:102680000298FDF7DFFF3031029007F8011D0C9929
:10269000481E0C900029F2DC02980028EFD1A7F127
:1026A00001010D980870307800F0200040F04500DE
:1026B00007F8020D11A8A0EB070000F10700029037
:1026C0001398007800B1012000EB0801019801EB9C
:1026D000E071029801440398A0EB0100A0F1010011
:1026E0000390E00306D453462146179A039800F05E
:1026F0005EF805441398007820B152461799904728
:1027000005F10105E00322D553462146179A0398A7
:1027100000F04DF805441AE0BBF1000F07DB00980C
:10272000584504DD1098179910F80B0001E017992F
:1027300030205246904701986D1C401E0BF1010B52
:10274000019004D12E205246179990476D1CB8F184
:102750000001A8F10108DFDC05E017F8010B524683
:10276000179990476D1C0299481E02900029F4DCCD
:1027700053462146179A0398A9E600002D00000051
:102780002B000000200000002DE9F0410446002548
:1027900017461E46880405D406E039462020B04777
:1027A00005F10105641EF8D52846BDE8F0812DE944
:1027B000F0410446002590461E46C80301D5302747
:1027C00000E02027880405D506E041463846B0479A
:1027D00005F10105641EF8D52846BDE8F08100002A
:1027E00070B5054D0446C1B22846FFF749FA28885E
:1027F0000006FCD5204670BD00380140FEF7DCF82D
:10280000FEF764FD034C00BFFEF756F92046FEF7C5
:1028100015FDF9E70000A04038280008000000205E
:10282000400000000C1F000878280008400000202D
:10283000600900001C1F00080000000000000000EC
:102840000000000000000000CDCC4C3E0000000065
:102850000000000000000000000000000000000078
:102860000204060800000000010203040102030440
:08287000060708090000000042
:0400000508000131BD
:00000001FF
