:020000040800F2
:1000000038040020450100084D0100084F01000898
:1000100051010008530100085501000800000000CC
:100020000000000000000000000000005701000870
:1000300059010008000000005B0100085D01000894
:100040005F0100085F0100085F0100085F01000810
:100050005F0100085F0100085F0100085F01000800
:100060005F0100085F0100085F0100085F010008F0
:100070005F0100085F0100085F0100085F010008E0
:100080005F0100085F0100085F0100085F010008D0
:100090005F0100085F0100085F0100085F010008C0
:1000A0005F0100085F0100085F0100085F010008B0
:1000B0005F010008050700085F0100085F010008F4
:1000C0005F0100085F0100085F0100085F01000890
:1000D0005F0100085F0100085F0100085F01000880
:1000E0005F0100085F0100085F0100085F01000870
:1000F0005F0100085F0100085F0100085F01000860
:100100005F0100085F0100085F0100085F0100084F
:100110005F0100085F0100085F0100085F0100083F
:100120005F0100085F0100085F0100085F0100082F
:10013000DFF80CD000F018F800480047A5080008C8
:10014000380400200648804706480047FEE7FEE7DF
:10015000FEE7FEE7FEE7FEE7FEE7FEE7FEE7FEE777
:10016000B506000831010008064C074D06E0E068BE
:1001700040F0010394E8070098471034AC42F6D3EE
:10018000FFF7DAFFAC080008CC08000810B500F053
:100190005FF900F07FFABDE8104000F019B80000E8
:1001A00010B50021094800F057FB084800210C3029
:1001B00000F052FB05480021183000F04DFB0348C9
:1001C0000021BDE81040243000F046BB08000020AC
:1001D0002DE9FF410121042000F02EF9FF20ADF8A8
:1001E000000010208DF803002D4F03268DF80260CB
:1001F0006946384600F08CF81425002402230122B9
:1002000039462848CDE9004500F01DFB2548082364
:10021000042239460C30CDE9004500F014FB21489A
:100220002023102239461830CDE9004500F00BFBA1
:100230001C488023402239462430CDE9004500F097
:1002400002FBFFF7ADFF01252946022000F0E8F888
:10025000ADF8045041F61F40ADF80000124DADF866
:100260000640ADF802406946284600F089FA0122AE
:100270004121284600F07CFA1D208DF80C008DF8F5
:100280000D408DF80E6001208DF80F0003A800F0DE
:1002900095F80121284600F056FABDE8FF810000DC
:1002A00000080140080000200004004010B50B4C7D
:1002B0000B48217800F0B2FA094821780C3000F0A0
:1002C000ADFA07482178183000F0A8FA21780448E0
:1002D000BDE81040243000F0A1BA0000000000206A
:1002E0000800002004490A6822F010020A600A6827
:1002F00002430A607047000000200240034A116870
:1003000001F03801014311607047000000200240F5
:100310002DE9F041CB78002503F00F02DB0601D573
:100320008B781A430B884FF00F0813F0FF0F4FF034
:10033000010C1CD0D0F800400E880CFA05F31E40CA
:100340009E4210D1AF0008FA07F624EA060602FA28
:1003500007F43443CE78282E02D0482E02D002E093
:10036000436100E003616D1C082DE5D304600B8838
:10037000FF2B1DD94468002505F108060CFA06F389
:100380000E881E409E420FD1AF0008FA07F624EAFD
:10039000060602FA07F43443CE78282E00D14361D2
:1003A000CE78482E00D103616D1C082DE4D3446043
:1003B000BDE8F081416170470161704770B50F2160
:1003C000C478027801234FF0E026DCB1124C246897
:1003D00004F4E064C4F5E064250AC5F10404E940CE
:1003E0004578A54084780C402C4321010B4C1155D5
:1003F000007800F01F018B40400906EB8000C0F838
:10040000003170BD02F01F008340500906EB8000F0
:10041000C0F8803170BD00000CED00E000E400E0A9
:10042000044A0029D16901D0014300E08143D16130
:100430007047000000100240044A0029916901D071
:10044000014300E0814391617047000000100240C9
:1004500010B500F02FF84FF48034204600F074F807
:1004600000F0BAF8012823D1002000F063F8002042
:1004700000F08EF8A01100F081F80220FFF73EFF97
:100480001020FFF72FFF4FF4E011204600F090F806
:10049000012000F087F8392000F02CF80028FAD06D
:1004A000022000F08FF800BF00F03CF80828FBD1D4
:1004B00010BD00000C48016841F001010160416875
:1004C0000A4A114041600168094A1140016001680F
:1004D00021F480210160416821F4FE0141604FF464
:1004E0001F01816070470000001002400000FFF80B
:1004F000FFFFF6FE0246002053090949012B0BD0ED
:10050000022B0BD0D1F8241002F01F0201239340DC
:100510000B4200D0012070470968F5E7096AF3E74C
:10052000001002400248406800F00C0070470000D4
:1005300000100240034A516821F0F001014351606C
:1005400070470000001002400B490A6822F4803214
:100550000A600A6822F480220A60B0F5803F07D062
:10056000B0F5802F03D1086840F4A02008607047E0
:10057000086840F48030F9E700100240034A5168EF
:1005800021F4E06101435160704700000010024017
:1005900003494A6822F4605242EAC000486070474A
:1005A0000010024001490866704700000000424206
:1005B000034A5368084323F47C1318435060704780
:1005C00000100240034A516821F0030101435160C9
:1005D000704700000010024030B500244FF4A065C1
:1005E0003120FFF787FF641CAC4201D00028F7D010
:1005F0003120FFF77FFF002800D0012030BD000030
:1006000022480021026842F4803202604FF4A06365
:10061000026801F1010112F4003F01D19942F7D1C2
:100620000168890330D51A490A6842F010020A604D
:100630000A6822F003020A600A6842F002020A60B5
:100640004168416041684160416841F480614160B6
:10065000416821F47C114160416841F4E811416036
:10066000016841F08071016001688901FCD5416831
:1006700021F003014160416841F00201416041689D
:10068000C1F381010229FAD1704700000010024035
:10069000002002404FF0E020016921F004010161D7
:1006A00003480921017042F228314180704700005F
:1006B000020000200F4810B5016841F001010160FF
:1006C00041680D4A1140416001680C4A11400160C7
:1006D000016821F480210160416821F4FE0141603C
:1006E0004FF41F018160FFF78BFF05494FF0006059
:1006F000086010BD001002400000FFF8FFFFF6FE8A
:1007000008ED00E010B50C4C0121204600F025F862
:10071000002810D00121204600F012F80748017887
:10072000491CC9B20170642901D900210170BDE8DA
:100730001040FFF7BBBD10BD0004004000000020CA
:10074000C943018270470029018802D041F00101AC
:1007500001E021F0010101807047038A00228089B5
:100760000B4200EA010001D000B10122104670479F
:10077000002A828901D00A4300E08A4382817047BF
:1007800030B502881B4B1C4C98420DD0A0420BD0B8
:10079000B0F1804F08D0194DA84205D0184DA8429D
:1007A00002D0184DA84203D122F070054A882A438E
:1007B000154DA84206D0154DA84203D022F440752D
:1007C000CA882A4302808A8882850A8802859842DC
:1007D0000AD0A04208D00E4A904205D00D4A90425D
:1007E00002D00D4A904201D1097A0186012181820D
:1007F00030BD0000002C01400034014000040040E6
:1008000000080040000C00400010004000140040B0
:10081000004001400044014000480140027A022AA1
:1008200010D0437A8B4206D21AB1C1880068FFF714
:10083000C1BD8188FAE71AB1C1880068FFF7BCBD65
:100840008188FAE7704730B5DDE9034501608280B1
:10085000C3800472457230BD10B5044601720800B1
:10086000A188206807D0FFF7A5FDE1882068BDE8D2
:100870001040FFF7A1BDFFF79FFDE1882068BDE8AC
:100880001040FFF797BD02E008C8121F08C1002AF8
:10089000FAD170477047002001E001C1121F002A01
:1008A000FBD17047FFF772FCFEE70000CC080008A0
:1008B000000000200800000086080008D408000896
:1008C0000800002030040000960800080000000026
:0408D0000000000024
:0400000508000131BD
:00000001FF
