:020000040800F2
:1000000040090020450100084D0100084F0100088B
:1000100051010008530100085501000800000000CC
:100020000000000000000000000000005701000870
:1000300059010008000000005B0100085D01000894
:100040005F0100085F0100085F0100085F01000810
:100050005F0100085F0100085F0100085F01000800
:100060005F0100085F0100085F0100085F010008F0
:100070005F0100085F0100085F0100085F010008E0
:100080005F0100085F0100085F0100085F010008D0
:100090005F0100085F0100085F0100085F010008C0
:1000A0005F0100085F0100085F0100085F010008B0
:1000B0005F010008150A00085F0100085F010008E1
:1000C0005F0100085F0100085F0100085F01000890
:1000D0005F010008690C0008510D00085F0100086D
:1000E0005F0100085F0100085F0100085F01000870
:1000F0005F0100085F0100085F0100085F01000860
:100100005F0100085F0100085F0100085F0100084F
:100110005F0100085F0100085F0100085F0100083F
:100120005F0100085F0100085F0100085F0100082F
:10013000DFF80CD000F0D8F800480047151200088E
:10014000400900200648804706480047FEE7FEE7D2
:10015000FEE7FEE7FEE7FEE7FEE7FEE7FEE7FEE777
:10016000C50900083101000830B50EE003460A4613
:1001700001E05B1C521C1C781578AC4201D1002CAC
:10018000F7D115F0FF0F04D0401C0278002AEDD102
:10019000002030BDF0B480EA0102D20F4300B3EB7F
:1001A000410F02D20346084619464B0042D0C30D08
:1001B000DDB2C1F3C7542C1B202C35DAC1F3160174
:1001C00041F4000502B16D42C4F1200605FA06F1C2
:1001D00025412844B3EBD05F23D0C2B1012CA0EB62
:1001E000C35009DCF0BC4FF0004202EAC35200F5F4
:1001F0000000DBB200F04AB8400000F1807000EB74
:10020000C350A0F1807040EAD170490009E049086C
:1002100041EAC071A0EBC35000F50000400800EBBC
:10022000C350F0BC00F029B85142012303EB410157
:10023000801AF6E7F0BC704781F00041AAE780F031
:100240000040A7E796230022114600F01FB830B502
:100250000B46014600202022012409E021FA02F584
:100260009D4205D303FA02F5491B04FA02F528441E
:10027000151EA2F10102F1DC30BD0029A8BF7047B4
:10028000401C490008BF20F00100704710B4B0FACC
:1002900080FC00FA0CF050EA010404BF10BC704767
:1002A00049B1CCF1200421FA04F411FA0CF118BF81
:1002B000012121430843A3EB0C01CB1D0106000AD9
:1002C000002BBEBF002010BC704700EBC350104491
:1002D0000029A4BF10BC7047401C490008BF20F093
:1002E000010010BC70470000064C074D06E0E068B6
:1002F00040F0010394E8070098471034AC42F6D36D
:10030000FFF71AFF241200084412000810B500F08D
:10031000BFF900F047FB00F059FCBDE8104000F0C9
:100320001FB8000001480069FFF78CBF24000020BF
:1003300010B50021094800F05EFE08480021443055
:1003400000F059FE05480021883000F054FE0348B3
:100350000021BDE81040CC3000F04DBE240000204C
:100360007FB50121042000F087F9FF20ADF80000DF
:1003700010208DF80300244D03248DF802406946B7
:10038000284600F08BF8E002ADF8000004208DF85C
:1003900003008DF802406946284600F07FF80023EC
:1003A00028211A46084600F019F9FFF7C1FF012578
:1003B0002946022000F054F9ADF8045041F61F40E0
:1003C000ADF800000025114EADF80650ADF8025012
:1003D0006946304600F0ACFB01224121304600F076
:1003E0009FFB1D208DF80C008DF80D508DF80E40F0
:1003F00001208DF80F0003A800F0AEF8012130466F
:1004000000F079FB7FBD00000008014000040040BF
:1004100010B50B4C0B48217800F0B4FD0948217849
:10042000443000F0AFFD07482178883000F0AAFD85
:1004300021780448BDE81040CC3000F0A3BD000096
:1004400000000020240000200848002102224181F1
:100450000272A0F84E1080F84C20A0F8921080F89C
:100460009020A0F8D61080F8D420704724000020F7
:1004700004490A6822F010020A600A6802430A600E
:100480007047000000200240034A116801F0380163
:100490000143116070470000002002402DE9F04147
:1004A000CB78002503F00F02DB0601D58B781A43C9
:1004B0000B884FF00F0813F0FF0F4FF0010C1CD00A
:1004C000D0F800400E880CFA05F31E409E4210D171
:1004D000AF0008FA07F624EA060602FA07F43443E6
:1004E000CE78282E02D0482E02D002E0436100E0F0
:1004F00003616D1C082DE5D304600B88FF2B1DD90B
:100500004468002505F108060CFA06F30E881E4023
:100510009E420FD1AF0008FA07F624EA060602FA57
:1005200007F43443CE78282E00D14361CE78482E8C
:1005300000D103616D1C082DE4D34460BDE8F08157
:100540000246002092680A4200D0012070474161B3
:10055000704701617047000070B50F21C4780278C0
:1005600001234FF0E026DCB1124C246804F4E0646F
:10057000C4F5E064250AC5F10404E9404578A540C6
:1005800084780C402C4321010B4C1155007800F06D
:100590001F018B40400906EB8000C0F8003170BDA0
:1005A00002F01F008340500906EB8000C0F8803144
:1005B00070BD00000CED00E000E400E0064B054AD1
:1005C000C0E90023826000224261C2618261C0E909
:1005D00003127047CDCC4C3E8FC2753C2DE9FC41D7
:1005E0000024CDE900401C4F0D46164698460223D4
:1005F00001223946194800F0E7FC18480823042274
:1006000039464430CDE9004500F0DEFC1348CDE921
:100610000046202310223946883000F0D5FC0F48D0
:10062000CDE90048802340223946CC3000F0CCFC94
:100630000A4C6089FFF706FE014604F12000FFF72F
:10064000BDFFB4F84E00FFF7FDFD014604F1640064
:10065000BDE8FC41FFF7B2BF0008014024000020C4
:10066000044A0029D16901D0014300E08143D161EE
:100670007047000000100240044A0029916901D02F
:10068000014300E081439161704700000010024087
:1006900010B500F02FF84FF48034204600F0C2F877
:1006A00000F008F9012823D1002000F0B1F8002063
:1006B00000F0DCF8A01100F0CFF80220FFF7E4FE14
:1006C0001020FFF7D5FE4FF4E011204600F0DEF8D1
:1006D000012000F0D5F8392000F07AF80028FAD08F
:1006E000022000F0DDF800BF00F08AF80828FBD1F6
:1006F00010BD00000C48016841F001010160416833
:100700000A4A114041600168094A114001600168CC
:1007100021F480210160416821F4FE0141604FF421
:100720001F01816070470000001002400000FFF8C8
:10073000FFFFF6FE224910B54A6812F00C03214A69
:1007400003D0042B01D0082B26D002604A681E4B30
:1007500002F0F00212099C5C0268E24042604C68C0
:1007600004F4E064240A1C5D22FA04F484604C68FA
:1007700004F460544FEAD4241B5D22FA03F2C260F1
:100780004968114B01F440414FEA91311B1F595CFC
:10079000B2FBF1F1016110BD4A684B6802F47012BE
:1007A0004FF0020413F4803F04EB924202D04B68F6
:1007B0009B0301D5054B00E0024B5A43C5E70000FF
:1007C0000010024000127A000F00002000093D00D6
:1007D0000246002053090949012B0BD0022B0BD0F4
:1007E000D1F8241002F01F02012393400B4200D0E5
:1007F000012070470968F5E7096AF3E70010024035
:100800000248406800F00C007047000000100240F1
:10081000034A516821F0F001014351607047000024
:10082000001002400B490A6822F480320A600A680C
:1008300022F480220A60B0F5803F07D0B0F5802F07
:1008400003D1086840F4A02008607047086840F4AD
:100850008030F9E700100240034A516821F4E0615A
:1008600001435160704700000010024003494A688C
:1008700022F4605242EAC000486070470010024013
:10088000014908667047000000004242034A53686D
:10089000084323F47C131843506070470010024053
:1008A000034A516821F00301014351607047000081
:1008B0000010024030B500244FF4A0653120FFF74E
:1008C00087FF641CAC4201D00028F7D03120FFF72D
:1008D0007FFF002800D0012030BD000070B5064623
:1008E000094C0A4DFFF71EFD01463046FFF7A7FCF5
:1008F000A04201D2A84203DD012000F06FFCF1E725
:10090000BDE87040FFF7A0BDACC527B7ACC5273721
:1009100022480021026842F4803202604FF4A06352
:10092000026801F1010112F4003F01D19942F7D1AF
:100930000168890330D51A490A6842F010020A603A
:100940000A6822F003020A600A6842F002020A60A2
:100950004168416041684160416841F480614160A3
:10096000416821F47C114160416841F4E811416023
:10097000016841F08071016001688901FCD541681E
:1009800021F003014160416841F00201416041688A
:10099000C1F381010229FAD1704700000010024022
:1009A000002002404FF0E020016921F004010161C4
:1009B00003480921017042F228314180704700004C
:1009C000040000200F4810B5016841F001010160EA
:1009D00041680D4A1140416001680C4A11400160B4
:1009E000016821F480210160416821F4FE01416029
:1009F0004FF41F018160FFF78BFF05494FF0006046
:100A0000086010BD001002400000FFF8FFFFF6FE76
:100A100008ED00E070B5234C0121204600F075F888
:100A200000283DD00121204600F062F81E4C2078BD
:100A3000401C20706088401C60801C4800F090FAC8
:100A40001A484430054600F08BFA217800206429CA
:100A500000D920706188B1F5FA6F1DD96080052139
:100A6000124800F04FFA0326104C142803D914380A
:100A700090FBF6F0A0810521284600F043FA1428E7
:100A800004D9143890FBF6F0A4F85000B4F85020C4
:100A9000A18907A000F0C6FABDE87040FFF7B8BC16
:100AA00070BD000000040040000000202400002071
:100AB0006265666F72652070696420202020206C5A
:100AC0006566745F7069645F7370656564203A2061
:100AD000256420202072696768745F7069645F73A1
:100AE00070656564203A202564200D0A000000002E
:100AF000C943018270470029018802D041F00101F9
:100B000001E021F0010101807047038A0022808901
:100B10000B4200EA010001D000B1012210467047EB
:100B2000002A828901D00A4300E08A43828170470B
:100B300030B502881B4B1C4C98420DD0A0420BD004
:100B4000B0F1804F08D0194DA84205D0184DA842E9
:100B500002D0184DA84203D122F070054A882A43DA
:100B6000154DA84206D0154DA84203D022F4407579
:100B7000CA882A4302808A8882850A880285984228
:100B80000AD0A04208D00E4A904205D00D4A9042A9
:100B900002D00D4A904201D1097A01860121818259
:100BA00030BD0000002C0140003401400004004032
:100BB00000080040000C00400010004000140040FD
:100BC00000400140004401400048014010B586B09B
:100BD000012144F20400FFF74FFD4FF40070ADF81F
:100BE000100018208DF8130003201D4C8DF8120002
:100BF00004A92046FFF752FC2015ADF81000042090
:100C00008DF8130004A92046FFF748FC4FF4E130AB
:100C100000900020ADF80400ADF80600ADF8080023
:100C2000ADF80C000C200F4CADF80A0069462046C8
:100C300000F006F9012240F22551204600F0E8F8C4
:100C4000012240F22441204600F0E2F80121204632
:100C500000F0B5F84021204600F0A8F806B010BD1D
:100C6000000801400038014070B52B4D40F225517D
:100C7000284600F0AEF8294CE0B1284600F03AF9D9
:100C8000A4F58061C0B2B1F8001440F2FF32C1F3A4
:100C90000E0191420ED2A4F58061B1F80014A4F5C2
:100CA0008062C1F30E010A442388491C61F30E03DC
:100CB0002380107040F22441284600F08AF8012871
:100CC00028D11748B0F8000440F40040208028469E
:100CD00000F010F913A11248FFF746FA28B11349A2
:100CE0000120887012A000F09DF913A10C48FFF7B5
:100CF0003BFA28B112A000F095F914491248086097
:100D00000748B0F800046FF30E002080208820F41C
:100D10000040208070BD00000038014034050020F4
:100D200034010020535441525400000008000020B8
:100D3000737461727400000053544F50000000003F
:100D400073746F70000000000400FA050CED00E001
:100D500070B5134C40F225552946204600F039F86D
:100D600000281BD02021204600F020F829462046EC
:100D700000F01FF8204600F0BDF8C2B20948017823
:100D800009B1012901D15A2A08D1074B5A54491CEB
:100D9000C9B20170092901D10121417070BD000063
:100DA000004400400800002036050020C9430180AF
:100DB00070470A0A01219140C94301807047002908
:100DC000818902D041F4005101E021F40051818178
:100DD000704770B501F01F0601220025C1F34213D0
:100DE00002FA06F4012B0FD0022B0FD0838A4FEAB0
:100DF00011210088234202FA01F200EA020001D028
:100E000000B10125284670BD8389F0E7038AEEE72B
:100E100010B5C1F3421301F01F040121A140012BC1
:100E200007D0022B07D01430002A026805D00A43ED
:100E300004E00C30F8E71030F6E78A43026010BD9A
:100E400030B50446008A85B00D464CF6FF71084067
:100E5000E98801432182A1894EF6F3100140A88858
:100E60002A8910436A890A431043A081A08A4FF659
:100E7000FF410840A9890143A1826846FFF75AFC57
:100E80001B48844201D1039800E00298A18909041B
:100E9000002900EBC00101EB0010296802DA4FEADB
:100EA000410101E04FEA8101B0FBF1F06422B0FBA7
:100EB000F2F14FEA01114FEA11136FF018056B437D
:100EC00000EB8300A3891D044FF0320306D503EB2A
:100ED000C000B0FBF2F000F0070005E003EB0010EB
:100EE000B0FBF2F000F00F000843208105B030BDE8
:100EF000003801408088C0F308007047C1F3080142
:100F00008180704770B50446C0694143A181A17BCF
:100F1000B0FBF1F045F2F40148430B49B0FBF1F5A9
:100F20002069411909A0216100F07CF8B4F8400063
:100F30004FF47A71B0FBF1F0B5FBF0F06061002086
:100F4000E061A08970BD0000A0860100746869732B
:100F50002064697374616E63653A2025640D0A002C
:100F600010B504464FF400610548FFF7E9FA6076D2
:100F7000217E814203D0E169491CE161207610BDE8
:100F80000008014010B50446007A2268022809D002
:100F900063898B420FD260B1E1881046BDE81040F2
:100FA000FFF7D5BAA1881046FFF7D1FAE18820688B
:100FB000F4E7A188F1E728B1E188BDE810401046C8
:100FC000FFF7C7BAA188F8E730B5DDE9034501604E
:100FD0008280C3800472458185810021417601763B
:100FE0001422C16182732122C27301614161C8214F
:100FF000A0F8401030BD10B5044601720800A18869
:10100000206807D0FFF7A3FAE1882068BDE8104008
:10101000FFF79FBAFFF79DFAE1882068BDE810400E
:10102000FFF795BA0FB4054B10B503A9044A02980F
:1010300000F018F810BC5DF814FB0000F91100086E
:101040002000002002E008C8121F08C1002AFAD1BF
:1010500070477047002001E001C1121F002AFBD138
:10106000704700002DE9FF4F89B004469B460025DC
:1010700096E0252833D10027641C4D4AB84601214B
:101080002378203B01FA03F0104202D00743641C8E
:10109000F6E720782E2819D114F8010F47F004073D
:1010A0002A280ED06FF02F022078A0F130010929F4
:1010B0000CD808EB880102EB410100EB0108641C2D
:1010C000F2E70A98641C50F8048B0A9020780028F4
:1010D0006AD0642808D0692806D075281FD05A46DF
:1010E0000B9990476D1C5AE00A994FF00A0901C903
:1010F0000A91002804DAC0F100004FF02D0102E04F
:10110000390504D52B218DF82010012104E0F907C1
:1011100001D02021F7E700218A4608AE0CE00A99A9
:101120004FF00A0901C90A91F5E74946FFF78FF820
:1011300001F1300106F8011D0028F6D1ADEB0600E3
:1011400000F12009780701D44FF00108C84502DDFD
:10115000A8EB090000E000208046002706E008A870
:101160005A46C05D0B9990476D1C7F1C5745F6DBB6
:1011700004E030205A460B9990476D1CB8F10001ED
:10118000A8F10108F5DC05E016F8010B5A460B99A9
:1011900090476D1CB9F10001A9F10109F4DC641C50
:1011A000207800287FF465AF0DB02846BDE8F08FA9
:1011B000092801000849498848434FF0E021486167
:1011C0000020886101220A610A69D30701D0D20395
:1011D000FAD50861886170470400002030B50446E4
:1011E0004FF47A7504E02846FFF7E4FF641EA4B2CA
:1011F000002CF8D130BD000070B5054D0446C1B2D9
:101200002846FFF77BFE28880006FCD5204670BDE7
:1012100000380140FFF77AF80148FFF75FFBFEE76F
:101220009A99993F44120008000000202400000011
:101230004410000868120008240000201C09000067
:101240005410000800000000000000000000000230
:101250000406080000000001020304010203040662
:0812600007080900000000006E
:0400000508000131BD
:00000001FF
